:020000040800F2
:100000000000012091780008ED030008F9030008C2
:1000100001040008090400081104000800000000A1
:10002000000000000000000000000000F93000089F
:1000300019040008000000000132000845320008E1
:1000400025040008310400083D04000849040008A4
:1000500055040008610400086D04000879040008D4
:1000600085040008910400089D040008A904000804
:10007000B5040008C1040008CD040008D904000834
:10008000E5040008F1040008FD0400080905000863
:1000900015050008210500082D0500083905000890
:1000A00045050008510500085D05000869050008C0
:1000B0002507000875050008810500088D05000862
:1000C00099050008A5050008B1050008BD05000850
:1000D000C9050008D5050008E1050008ED05000880
:1000E000F9050008050600081106000800000000D8
:1000F0000000000000000000000000000000000000
:0C01000000000000000000005FF808F1A3
:08010C00C8850000010000009D
:0401140000000000E7
:1001180010B5074C2378002B07D1064B002B02D0D3
:100128000548AFF300800123237010BC01BC0047D1
:10013800B8040020000000001401000808B50A4BAC
:10014800002B03D009480A49AFF300800948036827
:10015800002B02D108BC01BC0047074B002BF9D08B
:1001680000F00CF8F6E7C046000000001401000893
:10017800BC040020B8040020000000001847C04656
:1001880080B586B004AF00233B600023FB710023D9
:10019800BB7100F073F8032300930023019300233D
:1001A8000293002303930D480D494FF496720023E0
:1001B80001F0A4F803230093002301930023029382
:1001C80000230393074808494FF49672002301F06F
:1001D80095F800F047FA01F03DFCFEE7F50100084C
:1001E80000CA00083D0200080CCA000880B584B0A7
:1001F80000AF78600023FB73FB7B002B04D00C4B13
:100208004FF480421A6103E0094B4FF480425A616F
:10021800FB7B83F00103FB7301F0E6FC0346BB6044
:1002280007F1080318464FF4FA7101F071F9E3E792
:100238000018014080B584B000AF78600023FB73DC
:10024800FB7B002B04D00C4B4FF400421A6103E0F7
:10025800094B4FF400425A61FB7B83F00103FB73A7
:1002680001F0C2FC0346BB6007F1080318463221BF
:1002780001F04EF9E4E700BF0018014080B500AF77
:1002880005F0B6F84FF4803005F0E0F800BF3120F3
:1002980005F02CFC0346002BF9D01C4B02221A60F7
:1002A800002005F0B9F9002005F0EEF94FF4806060
:1002B80005F0CEF94FF440304FF4402105F052F9E3
:1002C800012005F06DF900BF392005F00FFC034649
:1002D800002BF9D0022005F073F900BF05F08CF966
:1002E8000346082BFAD17D20012105F057FB4FF07A
:1002F8000060002104F0B0FE4FF4407004F01EFDD1
:10030800042005F067FC00F085F980BD002002405C
:1003180080B483B000AF78603960FEE780B582B002
:1003280000AF274B7B6000233B60264B1B680133E3
:10033800244A1360234B1B6841F2873293423BD90E
:10034800204B00221A6004F057F90346012B02D013
:100358001D4B7B602EE003F0C9FD0346012B02D044
:100368001A4B7B6026E003F0DBF80346012B02D032
:10037800174B7B601EE003F0A1FB0346012B02D064
:10038800144B7B6016E003F051FA0346012B02D0B0
:10039800114B7B600EE003F073F90346012B02D08A
:1003A8000E4B7B6006E004F09FFA0346012B01D058
:1003B8000B4B7B6000233B600837BD4680BD00BF08
:1003C80018CA0008D404002028CA000838CA00083F
:1003D80048CA000858CA000868CA000878CA00084D
:1003E80088CA000880B400AFBD465DF8047B70473A
:1003F80080B400AFFEE700BF80B400AFFEE700BFE7
:1004080080B400AFFEE700BF80B400AFFEE700BFD6
:1004180080B400AFBD465DF8047B704780B400AF80
:10042800BD465DF8047B704780B400AFBD465DF8FB
:10043800047B704780B400AFBD465DF8047B70470D
:1004480080B400AFBD465DF8047B704780B400AF50
:10045800BD465DF8047B704780B400AFBD465DF8CB
:10046800047B704780B400AFBD465DF8047B7047DD
:1004780080B400AFBD465DF8047B704780B400AF20
:10048800BD465DF8047B704780B400AFBD465DF89B
:10049800047B704780B400AFBD465DF8047B7047AD
:1004A80080B400AFBD465DF8047B704780B400AFF0
:1004B800BD465DF8047B704780B400AFBD465DF86B
:1004C800047B704780B400AFBD465DF8047B70477D
:1004D80080B400AFBD465DF8047B704780B400AFC0
:1004E800BD465DF8047B704780B400AFBD465DF83B
:1004F800047B704780B400AFBD465DF8047B70474D
:1005080080B400AFBD465DF8047B704780B400AF8F
:10051800BD465DF8047B704780B400AFBD465DF80A
:10052800047B704780B400AFBD465DF8047B70471C
:1005380080B400AFBD465DF8047B704780B400AF5F
:10054800BD465DF8047B704780B400AFBD465DF8DA
:10055800047B704780B400AFBD465DF8047B7047EC
:1005680080B400AFBD465DF8047B704780B400AF2F
:10057800BD465DF8047B704780B400AFBD465DF8AA
:10058800047B704780B400AFBD465DF8047B7047BC
:1005980080B400AFBD465DF8047B704780B400AFFF
:1005A800BD465DF8047B704780B400AFBD465DF87A
:1005B800047B704780B400AFBD465DF8047B70478C
:1005C80080B400AFBD465DF8047B704780B400AFCF
:1005D800BD465DF8047B704780B400AFBD465DF84A
:1005E800047B704780B400AFBD465DF8047B70475C
:1005F80080B400AFBD465DF8047B704780B400AF9F
:10060800BD465DF8047B704780B400AFBD465DF819
:10061800047B704780B400AF104A104B9B6943F0CD
:10062800400393610E4A0E4B5B6843F0807353603E
:100638000B4A0B4B5B6823F080635360084A084BF6
:100648005B6843F080535360054A054B5B6823F0B1
:1006580080435360BD465DF8047B7047001002403C
:100668000018014080B586B000AF0120012105F0D7
:10067800B3F90220012105F0AFF94FF0804005F0F1
:100688004FFB254805F04CFB07F10803184605F019
:10069800D5FE4FF461637B617B699BB2BB8100230C
:1006A8003B810023FB8100237B8107F108034FF086
:1006B8008040194605F0B8FB4FF08040012106F054
:1006C800BBF94FF6FF73BB8107F1080312481946BF
:1006D80005F0AAFB1048012106F0AEF91C233B7176
:1006E8000023BB7100237B710123FB713B1D18465E
:1006F80004F036FB4FF080400121012205F056FF3F
:100708004FF08040012105F00BFF0348012105F05F
:1007180007FF1837BD4680BD0004004080B582B091
:1007280000AF194B9B8CFB80184B1B88042B14D9EA
:10073800174B1B88FA88D31ABB80164B1B88BA88BC
:100748009A4210D9134ABB881380124B1B88A3F511
:1007580061639AB2104B1A8005E00C4B1B88013379
:100768009AB20A4B1A800A4AFB8813800B4B1B6803
:1007780001330A4A13604FF08040012106F01AFF46
:100788000837BD4680BD00BF00040040E0040020DB
:10079800E2040020E4040020D8040020DC04002047
:1007A80080B483B000AF78607B6803F108027B688F
:1007B8005A607B684FF0FF329A607B6803F1080249
:1007C8007B68DA607B6803F108027B681A617B68E2
:1007D80000221A600C37BD465DF8047B704700BFE5
:1007E80080B483B000AF78607B6800221A610C3750
:1007F800BD465DF8047B704780B485B000AF786073
:1008080039607B685B68FB603B68FA685A60FB6824
:100818009A683B689A60FB689B683A685A60FB680C
:100828003A689A603B687A681A617B681B685A1C48
:100838007B681A601437BD465DF8047B704700BFBB
:1008480080B485B000AF786039603B681B68BB60D6
:10085800BB68B3F1FF3F03D17B681B69FB600CE009
:100868007B680833FB6002E0FB685B68FB60FB6841
:100878005B681A68BB689A42F6D9FB685A683B6895
:100888005A603B685B683A689A603B68FA689A60A5
:10089800FB683A685A603B687A681A617B681B682B
:1008A8005A1C7B681A601437BD465DF8047B704794
:1008B80080B485B000AF78607B681B69FB607B689B
:1008C8005B687A6892689A607B689B687A68526805
:1008D8005A60FB685A687B689A4203D17B689A68B9
:1008E800FB685A607B6800221A61FB681B685A1E05
:1008F800FB681A60FB681B6818461437BD465DF82C
:10090800047B704780B584B000AF786039607B683D
:10091800FB6002F041FCFB681A68FB68DB6BF96856
:10092800096C01FB03F31A44FB685A60FB68002258
:100938009A63FB681A68FB689A60FB681A68FB6828
:10094800DB6B013BF968096C01FB03F31A44FB6894
:10095800DA60FB684FF0FF325A64FB684FF0FF32F1
:100968009A643B68002B0ED1FB681B69002B14D0DE
:10097800FB681033184601F0ADFB0346012B0CD180
:1009880002F0FAFB09E0FB6810331846FFF708FF8E
:10099800FB6824331846FFF703FF02F00DFC012320
:1009A80018461037BD4680BD80B588B000AFF860E6
:1009B800B9601346FB710023BB61BB68002B02D1F1
:1009C8000023FB6105E0FB68BA6802FB03F301330F
:1009D800FB61FB695433184603F0D2FF78617B69E9
:1009E800002B1DD07B693B61BB68002B03D13B69A1
:1009F8003A691A6004E07B6903F154023B691A60A2
:100A08003B69FA68DA633B69BA681A643869012194
:100A1800FFF778FF3B69FA7983F850203B69BB619F
:100A2800BB6918462037BD4680BD00BF80B584B07D
:100A380000AF0346FB71542003F0A2FFF860FB6887
:100A4800002B30D0FB6800225A60FB6800221A6035
:100A5800FB6800229A60FB680022DA60FB680022CB
:100A68009A63FB680122DA63FB6800221A64FB6858
:100A78004FF0FF325A64FB684FF0FF329A64FB680C
:100A8800FA7983F85020FB6810331846FFF788FE80
:100A9800FB6824331846FFF783FEF868002100221C
:100AA800002300F055F8FB6818461037BD4680BD96
:100AB80090B585B000AF78607B68BB60BB685C6848
:100AC80001F05EFE03469C4211D1BB68DB685A1EEA
:100AD800BB68DA60BB68DB68002B05D1B868002109
:100AE8000022002300F034F80123FB6001E000231A
:100AF800FB60FB6818461437BD4690BD90B585B0BD
:100B080000AF786039607B68BB60BB685C6801F0E7
:100B180037FE03469C4207D1BB68DB685A1CBB689A
:100B2800DA600123FB600EE0B86800213A68002310
:100B380000F024F9F860FB68012B04D1BB68DB687E
:100B48005A1CBB68DA60FB6818461437BD4690BD6E
:100B580080B58AB000AFF860B9607A603B60002366
:100B68007B62FB683B6202F017FB3B6A9A6B3B6A4D
:100B7800DB6B9A4202D33B68022B1DD1386AB968F5
:100B88003A6800F083FAF8613B6A5B6A002B0AD086
:100B98003B6A2433184601F09DFA0346012B07D11E
:100BA80002F0EAFA04E0FB69002B01D002F0E4FA53
:100BB80002F002FB012359E07B68002B03D102F00D
:100BC800FBFA002352E07B6A002B06D107F11403DD
:100BD800184601F01FFB01237B6202F0EDFA00F0DA
:100BE80075FF02F0D9FA3B6A5B6CB3F1FF3F02D1A3
:100BF8003B6A00225A643B6A9B6CB3F1FF3F02D107
:100C08003B6A00229A6402F0D7FA07F114023B1DEE
:100C18001046194601F014FB0346002B1ED1386A12
:100C280000F03EFB0346002B12D03B6A03F1100292
:100C38007B681046194601F0C5F9386A00F0BAFA1F
:100C480000F052FF0346002B0FD102F095FA0CE09A
:100C5800386A00F0AFFA00F047FF84E7386A00F01E
:100C6800A9FA00F041FF002300E07CE71846283786
:100C7800BD4680BD80B588B000AFF860B9607A60C5
:100C88003B60FB68BB6102F0A9FA7861BB699A6BAB
:100C9800BB69DB6B9A4202D33B68022B24D1B8694B
:100CA800B9683A6800F0F2F9BB699B6CB3F1FF3F91
:100CB80012D1BB695B6A002B13D0BB692433184679
:100CC80001F008FA0346002B0BD07B68002B08D0F4
:100CD8007B6801221A6004E0BB699B6C5A1CBB69E3
:100CE8009A640123FB6101E00023FB61786902F04B
:100CF8007FFAFB6918462037BD4680BD80B586B0AF
:100D080000AF786039607B683B6102F067FAF86091
:100D18003B699A6B3B69DB6B9A4224D23B699B6BBC
:100D28005A1C3B699A633B699B6CB3F1FF3F12D134
:100D38003B695B6A002B13D03B692433184601F0EA
:100D4800C9F90346002B0BD03B68002B08D03B6841
:100D580001221A6004E03B699B6C5A1C3B699A6447
:100D680001237B6101E000237B61F86802F040FA0F
:100D78007B6918461837BD4680BD00BF80B58AB06C
:100D880000AFF860B9607A603B6000237B62FB6863
:100D98003B6202F001FA3B6A9B6B002B3BD03B6A3B
:100DA800DB68FB61386AB96800F0DEF93B68002B44
:100DB8001CD13B6A9B6B5A1E3B6A9A633B6A1B6851
:100DC800002B04D101F0F6FE02463B6A5A603B6AEA
:100DD8001B69002B1BD03B6A1033184601F07AF9C7
:100DE8000346012B13D102F0C7F910E03B6AFA69F8
:100DF800DA603B6A5B6A002B09D03B6A24331846E9
:100E080001F068F90346002B01D002F0B5F902F0B1
:100E1800D3F9012366E07B68002B03D102F0CCF9FB
:100E280000235FE07B6A002B06D107F11403184604
:100E380001F0F0F901237B6202F0BEF900F046FEF2
:100E480002F0AAF93B6A5B6CB3F1FF3F02D13B6A3F
:100E580000225A643B6A9B6CB3F1FF3F02D13B6AA4
:100E680000229A6402F0A8F907F114023B1D10460B
:100E7800194601F0E5F90346002B2BD1386A00F03A
:100E8800E5F90346002B1FD03B6A1B68002B08D1ED
:100E980002F082F93B6A5B68184601F081FC02F0B7
:100EA8008BF93B6A03F124027B681046194601F06E
:100EB80089F8386A00F07EF900F016FE0346002B28
:100EC8000FD102F059F90CE0386A00F073F900F01C
:100ED8000BFE5EE7386A00F06DF900F005FE0023AE
:100EE80000E056E718462837BD4680BD80B588B073
:100EF80000AFF860B9607A60FB68BB6102F06EF918
:100F08007861BB699B6B002B28D0B869B96800F081
:100F18002BF9BB699B6B5A1EBB699A63BB695B6CF7
:100F2800B3F1FF3F12D1BB691B69002B13D0BB691A
:100F38001033184601F0CEF80346002B0BD07B681F
:100F4800002B08D07B6801221A6004E0BB695B6C47
:100F58005A1CBB695A640123FB6101E00023FB6151
:100F6800786902F045F9FB6918462037BD4680BD0F
:100F780080B586B000AF786039607B683B6102F06D
:100F88002DF9F8603B699B6B002B0CD03B69DB6843
:100F9800BB603869396800F0E7F83B69BA68DA601D
:100FA80001237B6101E000237B61F86802F020F9EE
:100FB8007B6918461837BD4680BD00BF80B584B030
:100FC80000AF786002F0E8F87B689B6BFB6002F08A
:100FD800F3F8FB6818461037BD4680BD80B584B06D
:100FE80000AF78607B68FB6002F0D6F8FB68DA6BCC
:100FF800FB689B6BD31ABB6002F0DEF8BB6818462F
:101008001037BD4680BD00BF80B485B000AF7860A2
:101018007B689B6BFB60FB6818461437BD465DF820
:10102800047B704780B584B000AF78607B68FB6054
:10103800F86803F033FD1037BD4680BD80B483B037
:1010480000AF78607B68DB6C18460C37BD465DF8EE
:10105800047B704780B483B000AF786039607B68E8
:101068003A68DA640C37BD465DF8047B704700BF08
:1010780080B483B000AF78607B6893F8503018462E
:101088000C37BD465DF8047B704700BF80B586B05D
:1010980000AFF860B9607A6000237B61FB681B6C65
:1010A800002B0DD1FB681B68002B52D1FB685B68D5
:1010B800184601F0EDFB7861FB6800225A6048E0B1
:1010C8007B68002B1AD1FB689A68FB681B6C10467A
:1010D800B9681A4607F004FDFB689A68FB681B6C40
:1010E8001A44FB689A60FB689A68FB685B689A42D6
:1010F8002FD3FB681A68FB689A602AE0FB68DA68F5
:10110800FB681B6C1046B9681A4607F0E9FCFB68D7
:10111800DA68FB681B6C5B421A44FB68DA60FB68A0
:10112800DA68FB681B689A4207D2FB685A68FB6852
:101138001B6C5B421A44FB68DA607B68022B08D19F
:10114800FB689B6B002B04D0FB689B6B5A1EFB68EB
:101158009A63FB689B6B5A1CFB689A637B69184609
:101168001837BD4680BD00BF80B582B000AF78603B
:1011780039607B681B6C002B19D07B68DA687B6848
:101188001B6C1A447B68DA607B68DA687B685B688A
:101198009A4203D37B681A687B68DA607B68DA68EE
:1011A8007B681B6C386811461A4607F099FC0837AB
:1011B800BD4680BD80B582B000AF786001F0ECFF1D
:1011C80014E07B685B6A002B0AD07B6824331846DE
:1011D80000F080FF0346002B03D001F075F800E013
:1011E80008E07B689B6C5A1E7B689A647B689B6CE2
:1011F800002BE6DC7B684FF0FF329A6401F0DCFFDD
:1012080001F0CAFF14E07B681B69002B0FD07B68D4
:101218001033184600F05EFF0346002B01D001F0A2
:1012280053F87B685B6C5A1E7B685A6400E003E0E5
:101238007B685B6C002BE6DC7B684FF0FF325A64FE
:1012480001F0BAFF0837BD4680BD00BF80B584B045
:1012580000AF786001F0A0FF7B689B6B002B02D188
:101268000123FB6001E00023FB6001F0A5FFFB68A0
:1012780018461037BD4680BD80B485B000AF786091
:101288007B689B6B002B02D10123FB6001E00023EC
:10129800FB60FB6818461437BD465DF8047B704751
:1012A80080B584B000AF786001F076FF7B689A6BF8
:1012B8007B68DB6B9A4202D10123FB6001E00023CB
:1012C800FB6001F079FFFB6818461037BD4680BD0A
:1012D80080B485B000AF78607B689A6B7B68DB6B05
:1012E8009A4202D10123FB6001E00023FB60FB6806
:1012F80018461437BD465DF8047B704780B58AB040
:1013080002AFF860B9603B601346FB80FB88184663
:10131800396B01F021F9B861BB69002B6BD0BB694F
:101328001A6BFB8803F18043013B9B0013447B61EC
:101338007B6923F007037B61FB880093B869B96870
:10134800BA6A7B6B01F004F87869F9683A6801F0C9
:101358009DFE0246BB691A60FB6A002B02D0FB6A3D
:10136800BA691A6001F018FF2E4B1B6801332D4A29
:1013780013602D4B1B68002B09D12B4ABB691360E6
:10138800284B1B68012B0FD101F038F80CE0274BD4
:101398001B68002B08D1244B1B68DA6ABB6A9A4287
:1013A80002D8214ABB691360214B1B680133204ACC
:1013B80013601F4B1A68BB695A64BB69DB6A1A461B
:1013C800012303FA02F21B4B1B681343194A1360EB
:1013D800BB69DA6A13469B0013449B00164A1A44F9
:1013E800BB69043310461946FFF706FA0123FB616F
:1013F80001F0E2FE02E04FF0FF33FB61FB69012BD5
:101408000BD10A4B1B68002B07D0074B1B68DA6A05
:10141800BB6A9A4201D201F0AFFEFB691846203739
:10142800BD4680BDC0050020E8040020CC05002092
:10143800DC050020C8050020EC04002080B584B03D
:1014480000AF786001F0A8FE7B68002B02D1294B21
:101458001B6800E07B68FB60FB6804331846FFF7F5
:1014680027FA0346002B15D1FB68DA6A224913468E
:101478009B0013449B000B441B68002B0AD1FB689C
:10148800DB6A1A4601239340DA431C4B1B6813405E
:101498001A4A1360FB689B6A002B04D0FB68183358
:1014A8001846FFF705FAFB68043315481946FFF795
:1014B800A3F9144B1B680133124A1360124B1B68C3
:1014C8000133114A136001F077FE104B1B68002BA3
:1014D8000DD0084B1B68FA689A4202D101F04CFE05
:1014E80005E001F059FE01F027F901F065FE10371B
:1014F800BD4680BDE8040020EC040020C80500209B
:1015080094050020A8050020DC050020CC0500205B
:1015180080B586B000AF7860396000237B6100F049
:10152800D5FA264B1B683B617B681A683B681344F5
:10153800FB607B681A683B699A420BD97B681A681A
:10154800FB689A4211D9FA683B699A420DD901237E
:101558007B610AE07B681A68FB689A4203D8FA68DC
:101568003B699A4201D901237B617B68FA681A605A
:101578007B69002B17D0124B1B6804331846FFF702
:1015880097F90346002B0BD10D4B1B68DB6A1A46F3
:1015980001239340DA430B4B1B681340094A13603D
:1015A800F86800F0A3FF00F09FFAB860BB68002B52
:1015B80001D101F0E1FD1837BD4680BDC40500200A
:1015C800E8040020C805002080B584B000AF78602A
:1015D8000023FB607B68002B21D000F077FA144BC6
:1015E8001A687B681344BB60124B1B6804331846A7
:1015F800FFF75EF90346002B0BD10E4B1B68DB6A25
:101608001A4601239340DA430B4B1B6813400A4ADE
:101618001360B86800F06AFF00F066FAF860FB68CB
:10162800002B01D101F0A8FD1037BD4680BD00BFD9
:10163800C4050020E8040020C805002080B584B057
:1016480000AF786001F0A8FD7B68002B02D1074B42
:101658001B6800E07B68FB60FB68DB6ABB6001F02D
:10166800ABFDBB6818461037BD4680BDE8040020B6
:1016780080B586B000AF786001F0B0FD78617B6816
:10168800002B02D1074B1B6800E07B683B613B697C
:10169800DB6AFB60786901F0ABFDFB681846183718
:1016A800BD4680BDE804002080B586B000AF7860F4
:1016B800396000237B613B68042B01D904233B601C
:1016C80001F06AFD7B68002B02D1414B1B6800E0EA
:1016D8007B683B613B69DB6CFB60FA683B689A425C
:1016E80070D03A68FB689A420DD9394B1B683A6941
:1016F8009A420FD0364B1B68DA6A3B689A4209D87F
:1017080001237B6106E0324B1B683A699A4201D19A
:1017180001237B613B69DB6ABB603B69DA6C3B692F
:10172800DB6A9A4202D13B693A68DA623B693A68F5
:10173800DA643B699B69002B04DB3B68C3F1050253
:101748003B699A613B695969BA6813469B0013441F
:101758009B00204A1344994201D1012300E0002351
:10176800002B2AD03B6904331846FFF7A1F803463B
:10177800002B09D1BB68012202FA03F3DA43164BA6
:101788001B681340144A13603B69DB6A1A4601233D
:1017980003FA02F2104B1B6813430F4A13603B69AC
:1017A800DA6A13469B0013449B000A4A1A443B69B1
:1017B800043310461946FFF71FF87B69012B01D146
:1017C80001F0DAFC01F0F8FC1837BD4680BD00BF17
:1017D800E8040020EC040020C805002080B584B08F
:1017E80000AF786001F0D8FC7B68002B02D12D4B4C
:1017F8001B6800E07B68FB60FB6804331846FFF752
:1018080057F80346002B15D1FB68DA6A26491346B8
:101818009B0013449B000B441B68002B0AD1FB68F8
:10182800DB6A1A4601239340DA43204B1B681340B6
:101838001E4A1360FB689B6A002B04D0FB681833B0
:101848001846FFF735F8FB68043319481946FEF7C0
:10185800D3FF01F0B1FC134B1B68FA689A4213D10D
:10186800144B1B68002B02D001F086FC16E0104BCD
:101878001A68114B1B689A4203D10A4B00221A605E
:101888000CE000F017FB09E00A4B1B68002B05D0A1
:1018980001F082FC00F050FF01F08EFC1037BD46CD
:1018A80080BD00BFE8040020EC040020C80500202B
:1018B800AC050020CC050020C005002080B485B010
:1018C80000AF78600023FB607B68BB60BB685B6926
:1018D8000F4A934201D1012300E00023002B0FD0CF
:1018E800BB689B6A0B4A93420AD0BB689B6A002B71
:1018F80001D1012300E00023002B01D00123FB606C
:10190800FB6818461437BD465DF8047B704700BF76
:10191800AC0500208005002080B584B000AF786059
:101928007B68FB60FB68002B35D01C4B1B68FA6892
:101938009A4230D001F030FCF868FFF7BFFF034649
:10194800012B26D1FB6804331846FEF7B1FFFB686C
:10195800DB6A1A46012303FA02F2114B1B68134390
:101968000F4A1360FB68DA6A13469B0013449B0016
:101978000C4A1A44FB68043310461946FEF73CFF2C
:10198800FB68DA6A054B1B68DB6A9A4201D301F0EF
:10199800F3FB01F011FC1037BD4680BDE8040020C0
:1019A800C8050020EC04002080B586B000AF786040
:1019B80000237B617B683B6101F010FCF8603869AB
:1019C800FFF77CFF0346012B31D11D4B1B68002B11
:1019D80027D13B69DA6A1B4B1B68DB6A9A4201D341
:1019E80001237B613B6904331846FEF761FF3B69BD
:1019F800DB6A1A46012303FA02F2134B1B681343EE
:101A0800114A13603B69DA6A13469B0013449B0032
:101A18000E4A1A443B69043310461946FEF7ECFE99
:101A280005E03B6918330A481946FEF7E5FEF868F1
:101A380001F0DEFB7B6918461837BD4680BD00BF44
:101A4800E0050020E8040020C8050020EC04002080
:101A58008005002080B586B004AF002300930023E2
:101A6800019300230293002303930D480D494FF47B
:101A780096720023FFF742FC78607B68012B0CD13B
:101A880001F0ACFB084B01221A60084B00221A60D7
:101A9800074B00221A6001F04BFB0837BD4680BD9A
:101AA800392300089CCA0008CC050020C405002082
:101AB800DC04002080B500AF01F090FB024B00224F
:101AC8001A6001F053FB80BDCC05002080B400AF44
:101AD800044B1B680133034A1360BD465DF8047B61
:101AE800704700BFE005002080B582B000AF00233A
:101AF8007B6001F051FB344B1B68013B324A136099
:101B0800314B1B68002B57D1304B1B68002B53D02F
:101B180030E02F4BDB68DB683B603B6818331846C6
:101B2800FEF7C6FE3B6804331846FEF7C1FE3B6865
:101B3800DB6A1A46012303FA02F2264B1B68134399
:101B4800244A13603B68DA6A13469B0013449B00DF
:101B5800214A1A443B68043310461946FEF74CFEE6
:101B68003B68DA6A1D4B1B68DB6A9A4202D31C4B3E
:101B780001221A60164B1B68002BCAD1194B1B682F
:101B8800002B11D00CE000F0DDF80346002B02D04A
:101B9800134B01221A60134B1B68013B114A136057
:101BA800104B1B68002BEED10D4B1B68012B03D18A
:101BB80001237B6001F0E0FA01F0FEFA7B68184629
:101BC8000837BD4680BD00BFE0050020C0050020E5
:101BD80080050020C8050020EC040020E80400204F
:101BE800D4050020D005002080B483B000AF054B99
:101BF8001B687B607B6818460C37BD465DF8047B24
:101C0800704700BFC405002080B483B000AF002334
:101C18007B60054B1B683B603B6818460C37BD462C
:101C28005DF8047B704700BFC405002080B400AF96
:101C3800034B1B681846BD465DF8047B704700BF20
:101C4800C005002080B586B000AFF860B9607A6042
:101C580000237B6105233B61FFF738FF324B1B688C
:101C6800BA689A4258D33B69013B3B617B695B0187
:101C7800FA68D1183A6913469B0013449B002B4A13
:101C8800134408461946012200F09EFC02467B696F
:101C980013447B613B69002BE5D17B695B01FA68E2
:101CA8001A44234B1B6810461946022200F08CFC8C
:101CB80002467B6913447B617B695B01FA681A44BD
:101CC8001C4B1B6810461946022200F07DFC024698
:101CD8007B6913447B617B695B01FA68134418468E
:101CE8001549042200F070FC02467B6913447B61AD
:101CF8007B695B01FA68134418461049032200F017
:101D080063FC02467B6913447B617B68002B03D02C
:101D18000B4B1A687B681A60FFF7E6FE7B6918466A
:101D28001837BD4680BD00BFC0050020EC04002068
:101D3800780500207C05002094050020AC050020D3
:101D4800DC04002080B586B000AF00237B614E4BD9
:101D58001B68002B40F086804C4B1B6801334B4AB4
:101D680013604A4B1B683B613B69002B10D1484B01
:101D78001B68FB60474B1B68454A1360454AFB6874
:101D88001360454B1B680133434A136000F0D4FCD1
:101D9800424B1B683A699A424FD33D4B1B681B68FC
:101DA800002B01D1012300E00023002B04D03B4B82
:101DB8004FF0FF321A6040E0354B1B68DB68DB6888
:101DC800BB60BB685B687B603A697B689A4203D2F8
:101DD800324A7B68136030E0BB6804331846FEF76C
:101DE80067FDBB689B6A002B04D0BB681833184694
:101DF800FEF75EFDBB68DB6A1A46012303FA02F2AE
:101E0800274B1B681343264A1360BB68DA6A1346DC
:101E18009B0013449B00234A1A44BB6804331046B2
:101E28001946FEF7E9FCBB68DA6A1F4B1B68DB6AD8
:101E38009A4201D301237B61AFE71B4B1B68DA6A27
:101E4800184913469B0013449B000B441B68012B45
:101E580001D901237B61154B1B68002B09D1FEF7C3
:101E68005DFA06E0114B1B680133104A1360FEF758
:101E780055FA0F4B1B68002B01D001237B617B694E
:101E880018461837BD4680BDE0050020C40500206F
:101E9800780500207C050020D805002000000020DF
:101EA800C8050020EC040020E8040020D00500202C
:101EB800D405002080B584B000AF394B1B68002BD7
:101EC80003D0384B01221A6067E0364B00221A60B3
:101ED800354B1B68354A1360344B1A68344B1B6802
:101EE8009A4209D9334B1B68596D304A1068304AF9
:101EF8001268821A0A445A652C4B1B682C4A1360D4
:101F08002C4B1B681A682B4B1B681B6B9A4208D812
:101F1800284B1A68274B1B68343310461946FEF7BE
:101F2800F7F9244B1B681B6B18462349142206F04B
:101F3800ADFD0346002B08D01E4B1A681D4B1B68CD
:101F4800343310461946FEF7E3F91C4B1B687B60D7
:101F58007B68B3FA83F3FB70FB78C3F11F03FB6064
:101F6800FA6813469B0013449B00154A1344BB6050
:101F7800BB685B685A68BB685A60BB685A68BB68CC
:101F880008339A4204D1BB685B685A68BB685A60D8
:101F9800BB685B68DB68074A13601037BD4680BDC5
:101FA800E0050020D4050020DC040020E80500201E
:101FB800E4050020E8040020CCCA0008C805002079
:101FC800EC04002080B584B000AF78603960194B0C
:101FD8001B68183378681946FEF732FC154B1B68E6
:101FE80004331846FEF764FC0346002B0BD1114B53
:101FF8001B68DB6A1A4601239340DA430E4B1B68C1
:1020080013400D4A13603B68B3F1FF3F07D1094BFA
:102018001B68043309481946FEF7EEFB07E0084B36
:102028001A683B681344FB60F86800F05FFA1037E1
:10203800BD4680BDE8040020C8050020AC0500208E
:10204800C405002080B586B000AFF860B9607A603A
:102058001C4B1B68BA6842F000429A61194B1B6816
:102068001833F8681946FEF7C7FB164B1B6804338C
:102078001846FEF71DFC0346002B0BD1114B1B68BD
:10208800DB6A1A4601239340DA430F4B1B6813405F
:102098000D4A13607B68B3F1FF3F07D1094B1B68FA
:1020A80004330A481946FEF7A7FB07E0084B1A68ED
:1020B8007B6813447B61786900F018FA1837BD46CD
:1020C80080BD00BFE8040020C8050020AC05002042
:1020D800C405002080B584B000AF78607B68DB68F9
:1020E800DB68BB60BB6818331846FEF7E1FB1E4B84
:1020F8001B68002B1ED1BB6804331846FEF7D8FBBB
:10210800BB68DB6A1A46012303FA02F2174B1B6805
:102118001343164A1360BB68DA6A13469B001344DC
:102128009B00134A1A44BB68043310461946FEF74D
:1021380063FB05E0BB6818330E481946FEF75CFBE5
:10214800BB68DA6A0C4B1B68DB6A9A4205D9012323
:10215800FB600A4B01221A6001E00023FB60FB6868
:1021680018461037BD4680BDE0050020C805002090
:10217800EC04002080050020E8040020D40500209D
:1021880080B584B000AF786039603B6843F00042A6
:102198007B681A607B68DB68BB607868FEF788FB41
:1021A800BB6804331846FEF783FBBB68DB6A1A4634
:1021B800012303FA02F2134B1B681343114A1360FD
:1021C800BB68DA6A13469B0013449B000E4A1A4404
:1021D800BB68043310461946FEF70EFBBB68DA6A83
:1021E8000A4B1B68DB6A9A4205D90123FB60084B3E
:1021F80001221A6001E00023FB60FB6818461037D3
:10220800BD4680BDC8050020EC040020E80400207D
:10221800D405002080B483B000AF7860064B1A68FC
:102228007B681A60054B1A687B685A600C37BD4694
:102238005DF8047B704700BFD8050020C405002066
:1022480080B584B000AF7860396000F0A5FF1C4B02
:102258001B68BB603B681B68B3F1FF3F02D10023DA
:10226800FB6026E07B681A68164B1B689A4207D009
:102278007B685A68BB689A4202D80123FB6018E061
:102288007B685B68BA68D21A3B681B689A420ED2B0
:102298003B681A687B685968BB68CB1A1A443B6864
:1022A8001A607868FFF7B6FF0023FB6001E001239E
:1022B800FB6000F081FFFB6818461037BD4680BD03
:1022C800C4050020D805002080B400AF034B0122CC
:1022D8001A60BD465DF8047B704700BFD405002036
:1022E80080B485B000AF78607B68002B05D07B6830
:1022F800BB60BB689B6CFB6001E00023FB60FB6874
:1023080018461437BD465DF8047B704780B485B025
:1023180000AF786039607B68002B04D07B68FB6075
:10232800FB683A689A641437BD465DF8047B7047C9
:1023380080B582B000AF786000F09EF8034B1B6850
:10234800012B01D900F018FFF6E700BFEC040020CC
:1023580080B586B000AFF860B9607A603B60002352
:102368007B6113E0BA687B6913441978FA687B6962
:10237800134430330A461A71BA687B6913441B78D0
:10238800002B00D105E07B6901337B617B690F2B52
:10239800E8D9FB68002283F843207B68042B01D925
:1023A80004237B60FB687A68DA62FB687A68DA641F
:1023B800FB6800221A65FB6804331846FEF710FA1A
:1023C800FB6818331846FEF70BFAFB68FA681A61BF
:1023D8007B68C3F10502FB689A61FB68FA685A6278
:1023E800FB6800225A65FB6800229A65FB68002298
:1023F80083F85C201837BD4680BD00BF80B582B029
:1024080000AF00237B600CE07A6813469B001344FE
:102418009B00114A13441846FEF7C2F97B68013342
:102428007B607B68042BEFD90C48FEF7B9F90C48A0
:10243800FEF7B6F90B48FEF7B3F90B48FEF7B0F90B
:102448000A48FEF7ADF90A4B044A1A60094B044AD8
:102458001A600837BD4680BDEC04002050050020F6
:10246800640500208005002094050020AC050020AC
:10247800780500207C05002080B582B000AF28E0F8
:10248800FFF724FB164B1B68002B0CBF012300230E
:10249800DBB27B60FFF728FB7B68002B19D100F0CB
:1024A8007BFE0F4BDB68DB683B603B6804331846F8
:1024B800FEF7FEF90B4B1B68013B0A4A13600A4BF7
:1024C8001B68013B084A136000F076FE386800F08C
:1024D80023F9054B1B68002BD2D10837BD4680BDB8
:1024E80094050020C0050020A805002080B582B012
:1024F80000AF7860134B1B687A685A60124B1B68F0
:102508007A689A4209D2114B1A680E4B1B68043339
:1025180010461946FEF794F910E00D4B1A68094B5E
:102528001B68043310461946FEF78AF9094B1B68E5
:102538007A689A4202D2074A7B6813600837BD4618
:1025480080BD00BFE8040020C40500207C050020F1
:10255800780500200000002080B584B000AF034655
:102568003960FB803B68002B06D1FB889B0018462E
:1025780002F006FA034600E03B68BB60BB68002B2C
:102588000ED0602002F0FCF9F860FB68002B03D045
:10259800FB68BA681A6305E0B86802F07FFA01E0E0
:1025A8000023FB60FB68002B08D0FB681A6BFB88D4
:1025B8009B001046A5211A4606F0D2FAFB68184679
:1025C8001037BD4680BD00BF90B58BB000AFF86036
:1025D800B9601346FB7100237B62BB681B68002B44
:1025E80079D0BB683B623B6A5B685A683B6A5A6051
:1025F8003B6A5A683B6A08339A4204D13B6A5B6873
:102608005A683B6A5A603B6A5B68DB68FB61BB6877
:10261800BB61BB695B685A68BB695A60BB695A6829
:10262800BB6908339A4204D1BB695B685A68BB69C5
:102638005A60BB695B68DB687B617B6A5B01FA682F
:1026480013447A691A607B6A5B01FA6813447A69F1
:1026580034325A607B6A5B01FA6813447A69526CB7
:102668009A607B6A5B01FA681344FA791A737B6A89
:102678005B01FA6813447A69D26A1A61FB79032B01
:1026880009D17B699B6A002B05D07B6A5B01FA68DC
:10269800134402221A737B6A5B01FA6813447A694D
:1026A800D26C5A617B6A5B01FA6813447A69526D8D
:1026B8009A617B6A5B01FA68D4187B691B6B1846C0
:1026C80000F00EF80346A3837B6A01337B627A69C4
:1026D800FB699A429BD17B6A18462C37BD4690BD50
:1026E80080B485B000AF78600023FB6005E07B68AC
:1026F80001337B60FB680133FB607B681B78A52B8B
:10270800F5D0FB689B08FB60FB689BB21846143742
:10271800BD465DF8047B704780B582B000AF786035
:102728007B681B6B184602F0B9F9786802F0B6F9B5
:102738000837BD4680BD00BF80B483B000AF0E4BE4
:102748001B681B68002B01D1012300E00023002B2C
:1027580004D00A4B4FF0FF321A6008E0064B1B68A2
:10276800DB68DB687B607B685B68044A13600C3756
:10277800BD465DF8047B7047780500200000002006
:1027880080B483B000AF054B1B687B607B6818463C
:102798000C37BD465DF8047B704700BFE804002095
:1027A80080B584B000AF78607B68FB607B68002BE5
:1027B80064D0FB68DA6A334B1B68DB6A9A425DD2E5
:1027C800FB689B69002B06DB2E4B1B68DB6AC3F199
:1027D8000502FB689A61FB685969FB68DA6A134667
:1027E8009B0013449B00284A1344994201D10123BA
:1027F80000E00023002B3CD0FB6804331846FEF7AA
:1028080057F80346002B15D1FB68DA6A1E491346B0
:102818009B0013449B000B441B68002B0AD1FB68E8
:10282800DB6A1A4601239340DA43184B1B681340AE
:10283800164A1360134B1B68DA6AFB68DA62FB6896
:10284800DB6A1A46012303FA02F2104B1B68134392
:102858000E4A1360FB68DA6A13469B0013449B0018
:10286800094A1A44FB68043310461946FDF7C4FFA9
:1028780004E0044B1B68DA6AFB68DA621037BD466D
:1028880080BD00BFE8040020EC040020C80500203B
:1028980080B584B000AF78607B68BB600023FB60C4
:1028A8007B68002B51D0BB681B6D5A1EBB681A652C
:1028B800BB68DA6ABB68DB6C9A4246D0BB681B6DA2
:1028C800002B42D1BB6804331846FDF7F1FF0346DD
:1028D800002B15D1BB68DA6A1E4913469B001344C6
:1028E8009B000B441B68002B0AD1BB68DB6A1A46A5
:1028F80001239340DA43184B1B681340164A1360B0
:10290800BB68DA6CBB68DA62BB68DB6AC3F10502D4
:10291800BB689A61BB68DB6A1A46012303FA02F2B4
:102928000D4B1B6813430C4A1360BB68DA6A1346E5
:102938009B0013449B00074A1A44BB6804331046A3
:102948001946FDF759FF0123FB60FB68184610374D
:10295800BD4680BDEC040020C805002080B584B0C9
:1029680000AF786039607868396806F065F978688A
:1029780006F06AF90346FB6007E0FB687A681344CF
:1029880020221A70FB680133FB60FB680E2BF4DD14
:10299800FB687A68134400221A70FB687A6813444B
:1029A80018461037BD4680BDB0B588B002AF786014
:1029B8007B6800221A70384B1B68FB60364B1B681B
:1029C8005B01184601F0DCFF38613B69002B60D0E1
:1029D800FB68386919460022FFF734F90346FB60A3
:1029E8000023BB604EE0BB685B013A6913441B7B64
:1029F800013B032B16D801A252F823F0152A000830
:102A08001B2A0008212A0008272A00085223FB75E0
:102A18000BE04223FB7508E05323FB7505E04423D4
:102A2800FB7502E00023FB7500BFBB685B013A69D8
:102A380013445B6878681946FFF790FF7860FD7D5E
:102A4800BB685B013A6913441C69BB685B013A695E
:102A580013449B8B1946BB685B013A6913449B6816
:102A68000091019378680D492A46234606F0C2F87A
:102A7800786806F0E9F802467B6813447B60BB6817
:102A88000133BB60BA68FB689A42ACD3386902F07C
:102A980005F81837BD46B0BDC0050020A4CA000817
:102AA80080B588B000AF78607B6800221A70314B1F
:102AB8001B687B612F4B1B685B01184601F060FFA8
:102AC800F861FB69002B52D07A6907F10C03F869A9
:102AD80011461A46FFF7B6F803467B61FB68264A9B
:102AE800A2FB03235B09FB60FB68002B3CD000239F
:102AF8003B6135E03B695B01FA6913449A69FB68FD
:102B0800B2FBF3F3BB613B695B01FA6913445B6891
:102B180078681946FFF722FF7860BB69002B0BD055
:102B28003B695B01FA6913449B69786813491A4643
:102B3800BB6906F05FF809E03B695B01FA69134479
:102B48009B6978680E491A4606F054F8786806F0CA
:102B58007BF802467B6813447B603B6901333B6129
:102B68003A697B699A42C5D3F86901F097FF203723
:102B7800BD4680BDC00500201F85EB51B4CA0008C2
:102B8800C0CA000880B483B000AF094B1B689B69BA
:102B98007B60074B1B68064A1268D26AC2F10502BD
:102BA8009A617B6818460C37BD465DF8047B704710
:102BB800E804002080B400AF074B1B68002B04D04A
:102BC800054B1B681A6D01321A65034B1B681846C2
:102BD800BD465DF8047B7047E804002080B584B0EA
:102BE80000AF7860396000F0D7FA2E4B1B689B6DF8
:102BF800002B32D12B4B1B68012283F85C203B68E9
:102C0800002B2AD0274B1B6804331846FDF750FECB
:102C18000346002B0BD1234B1B68DB6A1A460123A2
:102C28009340DA43204B1B6813401F4A13603B68EC
:102C3800B3F1FF3F07D11B4B1B6804331B481946F0
:102C4800FDF7DAFD07E01A4B1A683B681344FB608E
:102C5800F868FFF74BFC00F08FFA00F0ADFA00F0CF
:102C68009BFA104B1B689B6DBB60BB68002B0CD09C
:102C78007B68002B04D00B4B1B6800229A6504E08C
:102C8800084B1B689A6D013A9A65064B1B6800222F
:102C980083F85C2000F090FABB6818461037BD46F0
:102CA80080BD00BFE8040020C8050020AC05002056
:102CB800C405002080B586B000AFF860B9607A60BE
:102CC8003B6000F069FA364B1B6893F85C30DBB266
:102CD800022B39D0324B1B68996DFA68D2430A40EF
:102CE8009A652F4B1B68012283F85C203B68002BF8
:102CF8002AD02B4B1B6804331846FDF7D9FD034631
:102D0800002B0BD1264B1B68DB6A1A460123934024
:102D1800DA43244B1B681340224A13603B68B3F123
:102D2800FF3F07D11E4B1B6804331F481946FDF7A8
:102D380063FD07E01D4B1A683B6813443B61386923
:102D4800FFF7D4FB00F018FA00F036FA00F024FA86
:102D58007B68002B04D0124B1B689A6D7B681A6045
:102D68000F4B1B6893F85C30DBB2012B02D10023B8
:102D78007B6108E00A4B1B68996DBA68D2430A4028
:102D88009A6501237B61064B1B68002283F85C204F
:102D980000F012FA7B6918461837BD4680BD00BF9F
:102DA800E8040020C8050020AC050020C405002068
:102DB80080B588B000AFF860B9603B601346FB711E
:102DC8000123FB61FB68BB6100F0E6F93B68002B5F
:102DD80003D0BB699A6D3B681A60BB6993F85C3095
:102DE800FB75BB69022283F85C20FB79042B28D889
:102DF80001A252F823F000BF4B2E0008152E000840
:102E0800232E00082F2E0008372E0008BB699A6D64
:102E1800BB681A43BB699A6513E0BB699B6D5A1C72
:102E2800BB699A650DE0BB69BA689A6509E0FB7DE4
:102E3800022B03D0BB69BA689A6501E00023FB61E5
:102E480000BFFB7D012B26D1BB6904331846FDF773
:102E58002FFDBB69DB6A1A46012303FA02F2114B04
:102E68001B6813430F4A1360BB69DA6A13469B0059
:102E780013449B000C4A1A44BB6904331046194694
:102E8800FDF7BAFCBB69DA6A084B1B68DB6A9A4231
:102E980001D900F071F900F08FF9FB691846203765
:102EA800BD4680BDC8050020EC040020E8040020D1
:102EB80080B588B000AFF860B9603B601346FB711D
:102EC8000123FB61FB68BB6100F088F97861BB698D
:102ED80093F85C30FB74BB69022283F85C20FB79B1
:102EE800042B28D801A252F823F000BF3F2F000876
:102EF800092F0008172F0008232F00082B2F000880
:102F0800BB699A6DBB681A43BB699A6513E0BB69D4
:102F18009B6D5A1CBB699A650DE0BB69BA689A65D6
:102F280009E0FB7C022B03D0BB69BA689A6501E013
:102F38000023FB6100BFFB7C012B35D11E4B1B68B6
:102F4800002B1ED1BB6904331846FDF7B1FCBB69E1
:102F5800DB6A1A46012303FA02F2184B1B68134373
:102F6800164A1360BB69DA6A13469B0013449B0038
:102F7800134A1A44BB69043310461946FDF73CFC52
:102F880005E0BB6918330F481946FDF735FCBB69E6
:102F9800DA6A0D4B1B68DB6A9A4205D93B68002B3D
:102FA80002D03B6801221A60786900F021F9FB69B8
:102FB80018462037BD4680BDE0050020C805002022
:102FC800EC04002080050020E804002080B586B0CD
:102FD80000AF786039607B687B6100F0FFF838618A
:102FE8007B6993F85C30FB737B69022283F85C2071
:102FF8007B699B6D5A1C7B699A65FB7B012B35D1DC
:103008001D4B1B68002B1ED17B6904331846FDF746
:103018004FFC7B69DB6A1A46012303FA02F2174B5D
:103028001B681343154A13607B69DA6A13469B00D1
:1030380013449B00124A1A447B690433104619460C
:10304800FDF7DAFB05E07B6918330E481946FDF7F2
:10305800D3FB7B69DA6A0C4B1B68DB6A9A4205D999
:103068003B68002B02D03B6801221A60386900F0E7
:10307800BFF81837BD4680BDE0050020C805002010
:10308800EC04002080050020E804002080B485B00E
:1030980000AFF860B9607A60FB68043BFB60FB68CE
:1030A8004FF080721A60FB68043BFB60BA68FB68EB
:1030B8001A60FB68043BFB60094AFB681A60FB68FE
:1030C800143BFB607A68FB681A60FB68203BFB6076
:1030D800FB6818461437BD465DF8047B704700BF8F
:1030E800ED30000880B500AF00F078F8FEE700BFCB
:1030F800074B19680868B0E8F00F80F30988BFF338
:103108006F8F4FF0000080F311884EF00D0E70475E
:10311800E80400205C480068006880F3088862B60C
:1031280061B6BFF34F8FBFF36F8F00DF00BF00BFE3
:1031380080B500AF0B4A0B4B1B6843F47F03136049
:10314800084A084B1B6843F07F43136000F08AF875
:10315800054B00221A60FFF7DDFFFFF7C3FF0023CE
:10316800184680BD20ED00E00400002080B400AFC8
:10317800BD465DF8047B704780B400AF054B4FF047
:1031880080521A60BFF34F8FBFF36F8FBD465DF853
:10319800047B704704ED00E080B500AF00F01EF836
:1031A800044B1B680133034A1360BFF34F8FBFF30F
:1031B8006F8F80BD0400002080B500AF064B1B68F0
:1031C800013B054A1360044B1B68002B02D1002009
:1031D80000F00EF880BD00BF04000020EFF311805E
:1031E8004FF0BF0181F3118870470023184600BFD4
:1031F80080F31188704700BFEFF30980BFF36F8F2A
:103208000D4B1A6820E9F00F10602DE908404FF0C7
:10321800BF0080F31188FEF74DFE4FF0000080F3E9
:103228001188BDE8084019680868B0E8F00F80F315
:103238000988BFF36F8F7047E804002080B500AF9E
:10324800FFF7CCFFFEF77EFD0346002B03D0044BAF
:103258004FF080521A600020FFF7CAFF80BD00BF00
:1032680004ED00E080B400AF044B054A1A60054B3A
:1032780007221A60BD465DF8047B704714E000E041
:103288003F19010010E000E008ED00E080B590B0C3
:1032980004AF78600123FB620523BB624FF47A73A5
:1032A8007B6200233B620C2001F06AFBF861F86A3C
:1032B80002210022FDF778FB0246FB691A60FB69D0
:1032C8007A6A5A60FB69564A9A600C2001F058FBEA
:1032D800B861FB691A68BB691A60BB693A6A5A60C7
:1032E800BB69504A9A607B680093002301930023CE
:1032F8000293002303934C484C494FF49672FB69A0
:10330800FDF7FCFF002300930023019300230293A1
:1033180000230393464847494FF49672BB69FDF76B
:10332800EDFF0C2001F02CFB7861F86A02210022E5
:10333800FDF73AFB02467B691A607B693A6A5A6074
:103348007B693D4A9A600C2001F01AFB38617B6961
:103358001A683B691A603B697A6A5A603B69374A5E
:103368009A60002300930023019300230293002313
:1033780003932D4832494FF496727B69FDF7BEFFDF
:103388007B68009300230193002302930023039397
:1033980027482C494FF496723B69FDF7AFFF0C2084
:1033A80001F0EEFAF860B86A02210022FDF7FCFA93
:1033B8000246FB681A60FB687A6A5A60FB68224A10
:1033C8009A600C2001F0DCFAB860FB681A68BB68E8
:1033D8001A60BB687A6A5A60BB681C4A9A60002304
:1033E80000930023019300230293002303931048C2
:1033F80017494FF49672FB68FDF780FF002300938E
:1034080000230193002302930023039306481149E4
:103418004FF49672BB68FDF771FF3037BD4680BD2B
:10342800EC050020F4050020C1340008E0CA0008BB
:1034380061340008E8CA0008F6050020EE050020FF
:10344800F0CA0008F8CA0008F8050020F0050020B6
:1034580000CB000808CB000880B586B000AF7860C4
:103468000023FB810023FB827B683B613B69196871
:103478003B695B6807F10E02084611461A460023AD
:10348800FDF766FB0346012B02D00123FB8211E006
:10349800B7F91630002B09D13B699A6813889BB29B
:1034A8009BB29BB201339BB29BB21380FB89013361
:1034B8009BB2FB81DAE700BF80B586B000AF7860C9
:1034C8000023FB820023BB827B683B613B69196850
:1034D8003B695B6807F10E02084611461A4600234D
:1034E800FDF74CFC0346012B19D1FB89FA8A9A4255
:1034F80004D0FB89FB820123BB8210E0B7F91430AA
:10350800002B09D13B699A6813889BB29BB29BB286
:1035180001339BB29BB21380FB8A0133FB82D5E750
:1035280080B483B000AF01237B6000233B6032E0AE
:103538001E4A3B6832F8133099B21D4A3B6832F88C
:1035480013300AB21BB29A4201D100237B60174A9A
:103558003B6832F8133099B2154A3B6822F81310C9
:10356800144A3B6832F8133099B2134A3B6832F870
:1035780013300AB21BB29A4201D100237B600D4A74
:103588003B6832F8133099B20B4A3B6822F81310A3
:103598003B6801333B603B68022BC9DD7B681846FA
:1035A8000C37BD465DF8047B704700BFEC05002072
:1035B800FC050020F40500200406002090B589B021
:1035C80004AF78600023FB8118E0B7F90E309B0048
:1035D8000E4A9C187B6800930023019300230293F2
:1035E800002303930A480B494FF496722346FDF7CC
:1035F80085FEFB899BB201339BB2FB81B7F90E3084
:10360800002BE2DD1437BD4690BD00BF0C0600203C
:103618002136000810CB000880B586B000AF78606E
:103628000023FB827B683B617B23FB60FB6803F51F
:1036380065334733FB60FB681A469B00D31AFB606F
:10364800FB680D4A82FB03121A449210DB17D31A47
:10365800FB60FB68094A934201D00123FB82B7F95A
:103668001630002B06D1FFF797FD3B6901221A603F
:10367800FFF7A2FDD8E700BF932449921B77FEFF0E
:1036880080B483B000AF01237B6000237B8013E00C
:10369800B7F902300E4A52F82330002B01D100232B
:1036A8007B60B7F902300A4A002142F823107B8870
:1036B8009BB201339BB27B80B7F90230002BE7DD68
:1036C8007B6818460C37BD465DF8047B704700BF21
:1036D8000C06002080B586B004AF78600A2002216D
:1036E8000022FDF761F90246114B1A607B680093CE
:1036F8000023019300230293002303930D480E49EE
:103708004FF496720A4BFDF7F9FD7B68009300238E
:1037180001930023029300230393084808494FF4B8
:103728009672034BFDF7EAFD0837BD4680BD00BF22
:1037380018060020BD37000818CB00084D370008D0
:1037480020CB000880B586B000AF78600023FB81ED
:1037580000237B6100233B6122E07B681A6807F144
:103768000E031046194600220023FDF7F1F903461F
:10377800012B02D001237B610FE07B69002B08D16C
:10378800FFF70AFD0A4B1B680133094A1360FFF76C
:1037980013FDFB8901339BB2FB813B6901333B611C
:1037A8003B69022BD9DDC820FDF70EFFD2E700BF29
:1037B8001406002080B586B000AF78600023FB8235
:1037C80000233B6124E07B681A6807F10E0310466A
:1037D800194600220023FDF7D1FA0346012B17D121
:1037E800FB89FA8A9A4204D001233B61FB89FB8258
:1037F8000BE03B69002B08D1FFF7CEFC0A4B1B6896
:103808000133094A1360FFF7D7FCFB8A0133FB82B7
:103818007B681B681846FDF7D1FB0346002BD2D105
:10382800B420FDF7D1FECDE71006002080B483B0A8
:1038380000AF0D4B1B68002B03D00C4B1B68002BF3
:1038480002D100237B6001E001237B60064B00224C
:103858001A60064B00221A607B6818460C37BD4672
:103868005DF8047B704700BF100600201406002096
:1038780080B58AB004AF786064237B610C2001F0C6
:103888007FF838613B69002B3ED0012000210322DC
:10389800FDF78AF802463B691A603B691B681846BF
:1038A800002100220023FDF753F93B691B68002B18
:1038B8002AD0042001F064F802463B695A603B694B
:1038C8005B68FF221A603B6900229A60002300931C
:1038D8000023019300230293002303932F483049C8
:1038E8004FF496723B69FDF709FD0023009300230E
:1038F80001930023029300230393284829494FF496
:1039080096723B69FDF7FAFC0C2001F039F8F86073
:10391800FB68002B3FD0012000210322FDF744F86B
:103928000246FB681A60FB681B68184600210022E3
:103938000023FDF70DF9FB681B68002B2BD0042032
:1039480001F01EF80246FB685A60FB685B6840F6A7
:10395800FF721A60FB687A699A607B68009300239B
:10396800019300230293002303930C480E494FF45C
:103978009672FB68FDF7C2FC7B68009300230193F5
:103988000023029300230393044808494FF49672D6
:10399800FB68FDF7B3FC1837BD4680BDB939000890
:1039A80028CB000830CB000838CB000840CB0008F3
:1039B80080B588B000AF786000237B83FFF7ECFB0D
:1039C8003C4B1B883B833B4B1B889BB29BB29BB2F7
:1039D80001339BB29AB2374B1A80FFF7EDFB7B6835
:1039E8007B617B695B683B617B699B68002B03D0CB
:1039F80040F6FF73FB6001E0FF23FB607B691A68F8
:103A08007B699B68104600211A460023FDF7B6F92A
:103A18000346012B47D13B691A68FB689A4201D0DB
:103A280001237B830023FB610CE03B69FA691A6080
:103A38003B691A68FB699A4201D001237B83FB69C1
:103A48000133FB61FB68FA699A42EED97B691B680E
:103A58001846002100220023FDF77AF80346002BC0
:103A680001D101237B83B7F91A30002B11D1B7F9A3
:103A78001830032B0DDCB7F918200F4B33F8123030
:103A88009BB29BB29BB201339BB299B20A4B23F80B
:103A980012107B699A6813469B0013445B00184612
:103AA800FDF792FD05E07B699B68002B01D1FFF7CC
:103AB80063FBA3E7240600201C06002080B483B023
:103AC80000AF01233B6000237B601AE0124A7B6849
:103AD80032F81310114A7B6832F813309BB20AB2DD
:103AE8001BB29A4201D100233B600C4A7B6832F832
:103AF800133099B2084A7B6822F813107B680133A7
:103B08007B607B68032BE1DD3B6818460C37BD46BC
:103B18005DF8047B704700BF280600201C060020C3
:103B280080B586B004AF052004210022FCF73CFFD5
:103B3800786000230093002301930023029300235D
:103B480003931B481B494FF496727B68FDF7D6FB1D
:103B580001230093184B019300230293002303933E
:103B6800164817494FF496727B68FDF7C7FB022386
:103B78000093144B019300230293002303931248EC
:103B880012494FF496727B68FDF7B8FB0323009344
:103B98000F4B019300230293002303930D480E4912
:103BA8004FF496727B68FDF7A9FB0837BD4680BDC8
:103BB800DD3D000848CB0008E42E0020753D0008D4
:103BC80050CB0008E02E0020E53C000858CB000848
:103BD800E82E0020E53B000860CB000880B584B0E3
:103BE80000AF78607B68FB6007F10803F868194646
:103BF8004FF0FF320123FDF7C1F80346012B02D035
:103C0800324B01221A60BB68314A934202D02F4BD3
:103C180001221A60F868FDF7D1F90346012B02D09A
:103C28002A4B01221A600023BB6007F10803F868D9
:103C3800194600220023FDF7A1F80346012B02D004
:103C4800224B01221A60BB68214A934202D01F4BC3
:103C580001221A6007F10803F86819464FF0FF328D
:103C68000123FDF78BF80346012B02D0174B0122E5
:103C78001A60BB68174A934202D0144B01221A609B
:103C8800F868FDF79BF90346012B02D00F4B012280
:103C98001A600020FDF7A2FD07F10803F86819462D
:103CA8004FF0FF320123FDF769F80346012B02D0DC
:103CB800064B01221A60BB68074A934202D0034BA5
:103CC80001221A600020FDF789FD8DE730060020EB
:103CD8004433221167452301BBAABBAA80B584B02F
:103CE80000AF78607B68FB6007F10803F868194645
:103CF8004FF0FF320123FDF741F80346012B02D0B4
:103D0800174B01221A60BB68164A934202D0144B23
:103D180001221A60F868FDF751F90346012B02D019
:103D28000F4B01221A600020FDF758FD07F1080328
:103D3800F86819464FF0FF320023FDF71FF80346D5
:103D4800012B02D0064B01221A60BB68064A934237
:103D580002D0034B01221A600020FDF73FFDC3E7A4
:103D68003006002067452301BBAABBAA80B584B0F2
:103D780000AF78607B68FB6007F10803F8681946B4
:103D88004FF0FF320123FCF7F9FF0346012B02D065
:103D98000D4B01221A60BB680C4A934202D00A4BB1
:103DA80001221A60F868FDF709F90346012B02D0D1
:103DB800054B01221A60064B1B680133044A136045
:103DC8000020FDF70BFDD7E73006002067452301EB
:103DD8003406002080B584B000AF78607B68FB6053
:103DE8003B4BBB6007F10803F86819460022002323
:103DF800FCF7AEFE0346012B02D0364B01221A60B7
:103E0800F868FDF7DBF80346002B02D0314B01229E
:103E18001A60314BBB6007F10803F86819460022A5
:103E28000023FCF795FE0346012B02D0294B012203
:103E38001A600023BB6007F10803F86819460022DE
:103E48000023FCF79BFF0346012B02D0214B0122E4
:103E58001A600A20FDF7B8FB204B1B681846FDF7CF
:103E68005BFD1F4B1B681846FDF756FD1D4B1B6875
:103E78001846FDF751FD1C4BBB6007F10803F868B5
:103E8800194600220123FCF763FE0346012B02D0EA
:103E9800104B01221A6007F10803F868194600223E
:103EA8000123FCF76BFF0346002B02D0094B0122CC
:103EB8001A600B4B1B681846FDF72EFD094B1B6853
:103EC8001846FDF729FD0A20FDF77EFB88E700BFAD
:103ED800443322113006002067452301E42E0020D8
:103EE800E02E0020E82E0020BBAABBAA80B400AFB9
:103EF8000C4B1A680C4B1B689A4202D10B4B0122DF
:103F08001A60094B1B68074A1360084B1B68002B93
:103F18000CBF01230023DBB21846BD465DF8047BC5
:103F2800704700BF38060020340600203006002005
:103F380080B588B004AF7860052004210022FCF722
:103F480033FDF8607B6800930023019300230293FC
:103F5800002303931D481E494FF49672FB68FDF732
:103F6800CDF90120FCF762FDB8600023009300231F
:103F780001930023029300230393164816494FF434
:103F88009672BB68FDF7BAF902230093134B0193AD
:103F98000023029300230393114812494FF49672A9
:103FA8000023FDF7ABF9032300930F4B0193002384
:103FB8000293002303930D480D494FF49672BB6892
:103FC800FDF79CF91037BD4680BD00BFFD3F0008D6
:103FD80068CB00085545000870CB00085006002043
:103FE8009545000878CB00084C060020B545000828
:103FF80080CB000880B586B000AF78607B687B61B5
:104008007869AA4900220123FCF7A2FD7869FCF728
:10401800D5FF0346012B02D0A54B01221A6007F1F8
:1040280010037869194600220023FCF7A7FE03460F
:10403800012B02D09E4B01221A609C4B1A683B69E7
:104048009A4202D09A4B01221A607869FCF7B6FFAF
:104058000346002B02D0964B01221A6078699349D7
:1040680000220023FCF774FD7869FCF7A7FF0346DC
:10407800012B02D08E4B01221A6007F110037869D8
:10408800194600220023FCF779FE0346012B02D0D3
:10409800874B01221A607869FCF790FF0346002BD2
:1040A80002D0834B01221A60804B1A683B699A42FE
:1040B80002D07F4B01221A6002233B610AE007F11C
:1040C80010037869194600220023FCF741FD3B697B
:1040D80001333B613B69042BF1D97869FCF76EFF2A
:1040E8000346032B02D0724B01221A6001233B6165
:1040F80007F110037869194600220123FCF728FD0F
:1041080000233B6107F11003786919460022012357
:10411800FCF71EFD7869FCF751FF0346052B02D01A
:10412800634B01221A6007F11003786919460022CF
:104138000123FCF70DFD0346002B02D05C4B012246
:104148001A6007F110037869194600220023FCF76A
:10415800FFFC0346002B02D0554B01221A600023B6
:104168003B612FE007F10C0378691946002201230F
:10417800FCF704FE0346012B02D04D4B01221A60C6
:104188003A69FB689A4202D0494B01221A60FB68DF
:10419800DB43FB6007F10C03786919460022002312
:1041A800FCF7ECFD0346012B02D0414B01221A60BB
:1041B8003A69FB689A4202D03D4B01221A603B697A
:1041C80001333B613B69042BCCD97869FCF7F6FED7
:1041D8000346002B02D0364B01221A600A233B61AA
:1041E80007F110037869194600220023FCF7B0FC98
:1041F8000346012B02D02E4B01221A600B233B6190
:1042080007F110037869194600220023FCF7A0FC87
:104218000346012B02D0264B01221A607869FCF76D
:10422800CDFE0346022B02D0214B01221A6009233E
:104238003B6110E007F11003786919460022012359
:10424800FCF786FC0346012B02D0194B01221A60A9
:104258003B69013B3B613B69062BEBD87869FCF76E
:10426800ADFE0346052B02D0114B01221A6007F15F
:1042780010037869194600220123FCF769FC0346FC
:10428800002B02D00A4B01221A6007F1100378694B
:10429800194600220023FCF75BFC0346002B02D0E2
:1042A800034B01221A6007233B611BE040060020F4
:1042B8003C06002007F10C03786919460022002308
:1042C800FCF75CFD0346012B02D00F4B01221A605C
:1042D8003A69FB689A4202D00B4B01221A603B698B
:1042E80001333B613B690B2BE4D97869FCF766FE27
:1042F8000346002B02D0044B01221A60034B1B68B3
:104308000133024A13607BE63C0600204006002089
:1043180080B582B000AF78603960786800210022EB
:104328000023FCF72BFD0346012B02D0404B012252
:104338001A60404B00221A600020FDF77FF90346FF
:10434800002B02D03A4B01221A603B4B1B681846DF
:10435800FDF7E2FA0020FDF771F90346032B02D0BE
:10436800334B01221A6000200121FDF79DF900203E
:10437800FDF764F90346032B02D02D4B01221A6086
:104388002E4B1B681846FDF7C7FA2A4B1B68002BF3
:1043980002D0274B01221A6038680021002200232E
:1043A800FCF7ECFC0346012B02D0214B01221A60DA
:1043B8007868002100220023FCF7CAFB0346012B82
:1043C80002D01B4B01221A601A4B1B68002B02D02B
:1043D800174B01221A600020FDF730F90346032B22
:1043E80002D0134B01221A603868002100220023F2
:1043F800FCF7AEFB0346012B02D00D4B01221A60DD
:104408000C4B1B68012B02D0094B01221A600020BB
:10441800FDF714F90346012B02D0054B01221A605F
:1044280000200021FDF740F90837BD4680BD00BFD8
:104438003C060020480600204C06002050060020BC
:1044480080B582B000AF78603960786800210022BA
:104458000023FCF793FC0346012B02D0374B0122C3
:104468001A60374B00221A600020FDF7E7F8034670
:10447800002B02D0314B01221A60324B1B681846C0
:10448800FDF74AFA0020FDF7D9F80346032B02D0BE
:104498002A4B01221A602C4B1B681846FDF73CFA80
:1044A800274B1B68002B02D0244B01221A60386866
:1044B800002100220023FCF761FC0346012B02D0F7
:1044C8001E4B01221A603868002100220023FCF7E5
:1044D8003FFB0346012B02D0184B01221A60184BF0
:1044E8001B68002B02D0154B01221A600020FDF733
:1044F800A5F80346032B02D0104B01221A607868F6
:10450800002100220023FCF723FB0346012B02D0E5
:104518000A4B01221A600A4B1B68012B02D0074B79
:1045280001221A600020FDF789F80346002B02D00B
:10453800024B01221A600837BD4680BD3C060020A8
:10454800480600204C0600205006002080B584B0A4
:1045580000AF78607B68FB600120FCF767FAB86001
:10456800F868B968FFF7D4FE074B1B680133064AA1
:104578001360F868B968FFF763FF034B1B680133E2
:10458800014A1360ECE700BF4406002080B582B002
:1045980000AF78600020FDF721F9034B1B68013359
:1045A800014A1360F6E700BF4806002080B584B0D2
:1045B80000AF78607B68FB600020FDF70FF9F868B2
:1045C80000214FF0FF320023FCF7D8FB0346012BF4
:1045D80002D0084B01221A60F8680021002200234B
:1045E800FCF7B6FA0346012B02D0024B01221A60EF
:1045F800E2E700BF3C06002080B400AF124B1A6807
:10460800124B1B689A4202D1114B01221A60114BBE
:104618001A68114B1B689A4202D10D4B01221A608D
:104628000A4B1B68084A13600B4B1B68094A136046
:10463800074B1B68002B0CBF01230023DBB2184675
:10464800BD465DF8047B70475406002040060020F4
:104658003C060020580600204406002080B584B09F
:1046680004AF0420FCF7E2F902461A4B1A60194B12
:104678001B68002B2CD002230093174B01930023B7
:10468800029300230393154815494FF496720023AB
:10469800FCF734FE01230093124B0193002302938D
:1046A80000230393104811494FF496720023FCF736
:1046B80025FE002300930023019300230293002387
:1046C80003930B480B494FF496720023FCF716FE30
:1046D800BD4680BD5C060020780600200147000822
:1046E80088CB00087C060020C147000890CB000852
:1046F8005548000898CB000880B584B000AF7860B2
:10470800294B1B681846FCF7D3F90346012B02D145
:10471800264B01221A600023FB6011E0224B1B6824
:1047280018460821FCF7EAF90346012B02D01F4B73
:1047380001221A601420FCF747FFFB680133FB6075
:10474800FB68092BEAD90023FB6010E01420FCF772
:104758003BFF154B1B681846FCF7AAF90346012BCB
:1047680002D0124B01221A60FB680133FB60FB6820
:10477800092BEBD90C4B1B681846FCF799F9034633
:10478800012B02D1094B01221A60094B1B68013326
:10479800074A1360074B01221A600020FDF71EF834
:1047A800044B00221A60ABE75C060020600600207C
:1047B8006C0600206406002080B582B000AF7860E7
:1047C8001C4B1B6818466FF00101FCF797F903466C
:1047D800012B1CD1184B1B68012B03D0174B01224E
:1047E8001A6017E0134B1B681846FCF761F903467B
:1047F800012B02D0114B01221A60114B01221A60C1
:104808000020FCF7EBFF0E4B00221A6002E00B4B76
:1048180001221A600B4B1B685A1C0B4B1B689A42EF
:1048280002D0064B01221A60064B1B680133054A69
:104838001360C5E75C0600206406002060060020BF
:1048480068060020700600206C06002080B582B043
:1048580000AF78601D4B1B6818460021FCF74EF925
:104868000346012B30D11A4B1B68012B03D1194B7E
:104878001B68012B03D0184B01221A6024E0174B48
:104888001B680133154A1360154B1B681846FDF762
:1048980043F8144B1B681846FDF73EF80C4B1B6891
:1048A800012B03D00B4B1B68012B02D10A4B0122B1
:1048B8001A60064B1B681846FCF7FAF80346012BEA
:1048C80002D0054B01221A60C4E700BF5C06002035
:1048D8006806002064060020600600207406002098
:1048E8007C0600207806002080B483B000AF1D4B02
:1048F8001A681D4B1B689A4203D11C4B01221A608F
:1049080003E0194B1B68174A1360194B1A68194BB7
:104918001B689A4203D1154B01221A6003E0154B1C
:104928001B68134A1360144B1A68144B1B689A428D
:1049380003D10E4B01221A6003E0104B1B680E4A8C
:1049480013600A4B1B68012B02D100237B6001E036
:1049580001237B607B6818460C37BD465DF8047BF5
:10496800704700BF800600206C060020600600200B
:1049780084060020700600208806002074060020A7
:1049880080B588B000AF786000237B61FDF79EF8A2
:104998003E4B1B68002B04D100F0CAF83B4B0122A8
:1049A8001A607B68002B0ED008231A467B681344D4
:1049B8007B607B6803F00703002B04D07B6823F03F
:1049C800070308337B607B68002B57D07B6842F273
:1049D800F772934252D82E4BBB612D4B1B68FB617B
:1049E80004E0FB69BB61FB691B68FB61FB695A68F2
:1049F8007B689A4203D2FB691B68002BF1D1FB69E3
:104A0800244A93423AD0BB691B68082213447B614D
:104A1800FB691A68BB691A60FB695A687B68D31A14
:104A280008225200934222D9FA697B681344FB603A
:104A3800FB695A687B68D21AFB685A60FB697A6816
:104A48005A60FB685B68BB60114B3B6102E03B69E5
:104A58001B683B613B691B685A68BB689A42F6D37E
:104A68003B691A68FB681A603B69FA681A600A4B66
:104A78001A68FB695B68D31A074A1360FDF734F8B4
:104A88007B6918462037BD4680BD00BF9C2E00209C
:104A98008C2E0020942E00200800002080B586B0BF
:104AA80000AF78607B683B617B68002B27D00823C8
:104AB8005B423A6913443B613B69FB60FDF706F8CA
:104AC800FB685B68BB600F4B7B6102E07B691B681E
:104AD8007B617B691B685A68BB689A42F6D37B691D
:104AE8001A68FB681A607B69FA681A60FB685A687A
:104AF800054B1B681344044A1360FCF7F5FF18378D
:104B0800BD4680BD8C2E00200800002080B400AF78
:104B1800034B1B681846BD465DF8047B704700BF11
:104B28000800002080B400AFBD465DF8047B7047E4
:104B380080B483B000AF0F4B23F007037B600E4AAD
:104B48007B6813600C4B00225A600C4B42F2F872DF
:104B58005A600A4B00221A607B683B603B6842F24D
:104B6800F8725A603B68054A1A600C37BD465DF812
:104B7800047B7047940600208C2E0020942E002081
:104B880080B485B000AFF860B9607A603B600123FB
:104B980018461437BD465DF8047B704780B400AFF3
:104BA800BD465DF8047B704780B485B000AFF860FF
:104BB800B9607A603B603B6818461437BD465DF8BB
:104BC800047B704780B483B000AF786039600023FD
:104BD80018460C37BD465DF8047B704780B485B035
:104BE80000AFF860B9607A603B600023184614375C
:104BF800BD465DF8047B704780B485B000AFF860AF
:104C0800B9607A607B684FF400525A6000231846F6
:104C18001437BD465DF8047B704700BF80B400AF11
:104C2800FEE700BF80B485B000AF786039600B4BF9
:104C38001B68002B02D1094B094A1A60074B1B68F5
:104C4800FB60064B1A683B681344044A1360FB6810
:104C580018461437BD465DF8047B7047A02E002027
:104C6800EC2E002080B483B000AF00237B60144B8F
:104C78004FF0FF32C3F88020114B6FF07042C3F839
:104C880084200F4B4FF0FF32C3F880210C4B6FF09C
:104C98007042C3F8842100237B6008E0084A7B68DF
:104CA800C033002142F823107B6801337B607B68A6
:104CB8000E2BF3D90C37BD465DF8047B704700BF57
:104CC80000E100E080B483B000AF00237B60194BA3
:104CD8004FF020625A60174B00229A60154B164A13
:104CE800DA60144B00221A61124B00225A61002329
:104CF8007B6008E00F4A7B680633002142F82310E6
:104D08007B6801337B607B68022BF3D9094B002257
:104D18005A62084B4FF0FF329A62064B4FF0FF324F
:104D2800DA62044B4FF0FF321A630C37BD465DF868
:104D3800047B704700ED00E00000FA0580B483B002
:104D480000AF7860054A7B6843F0BF6343F40033E3
:104D5800D3600C37BD465DF8047B704700ED00E07A
:104D680080B489B000AF78600023FB610023BB6189
:104D780000237B6100233B610F23FB607B68DB78AA
:104D8800002B62D03B4BDB68DB4303F4E0631B0A78
:104D9800FB61FB69C3F104033B61FB69FA6822FA12
:104DA80003F3FB607B685B781A463B6902FA03F3FE
:104DB800FB617B689B781A46FB681340FA691343CA
:104DC800FB61FB691B01FB617B681B7803F0030334
:104DD800DB00FA6902FA03F3FB61274A7B681B7858
:104DE8009B08DBB2C03352F82330BB617B681B7869
:104DF80003F00303DB00FF2202FA03F37B617B6904
:104E0800DB43BA691340BB61FA697B691340FB61F4
:104E1800BA69FB691343BB6117497B681B789B0818
:104E2800DBB2C033BA6941F82320134A7B681B7888
:104E38005B09DBB218467B681B7803F01F0301216E
:104E480001FA03F342F820300FE00B497B681B7826
:104E58005B09DBB218467B681B7803F01F0301224D
:104E68009A4000F1200341F823202437BD465DF81D
:104E7800047B704700ED00E000E100E080B483B0FF
:104E880000AF78607B6800221A707B6800225A7035
:104E98007B6800229A707B680022DA700C37BD4666
:104EA8005DF8047B704700BF80B500AF02F0D9FC05
:104EB80080BD00BF80B500AF02F0D5FC80BD00BF4B
:104EC80080B500AF02F0D1FC80BD00BF80B500AF57
:104ED80002F0CDFC80BD00BF80B582B000AF786025
:104EE8007B681B01184602F0C4FC0837BD4680BD2C
:104EF80080B500AF02F0C0FC0346184680BD00BF75
:104F080080B400AF054B5A68054B13401B0B9BB28E
:104F18001846BD465DF8047B704700BF00ED00E011
:104F280000F03F0080B485B000AF0346FB7100235A
:104F3800FB730023BB60FB7903F01F03012202FA15
:104F480003F3BB600B4AFB795B09DBB2403352F8D1
:104F58002320BB681A40BB689A4202D10123FB7325
:104F680001E00023FB73FB7B18461437BD465DF850
:104F7800047B704700E100E080B483B000AF0346D3
:104F8800FB71044AFB7913600C37BD465DF8047B5E
:104F9800704700BF00EF00E080B483B000AF034665
:104FA800FB710949FB795B09DBB21846FB7903F011
:104FB8001F0301229A4000F1600341F823200C37B7
:104FC800BD465DF8047B704700E100E080B400AFA7
:104FD800054B5B689BB2C3F309039BB21846BD46F9
:104FE8005DF8047B704700BF00ED00E080B485B039
:104FF80000AF0346FB710023FB730023BB60FB7902
:1050080003F01F03012202FA03F3BB600B4AFB798A
:105018005B09DBB2803352F82320BB681A40BB68B7
:105028009A4202D10123FB7301E00023FB73FB7B4F
:1050380018461437BD465DF8047B704700E100E070
:1050480080B400AF034B1B681846BD465DF8047B6F
:10505800704700BF00ED00E080B483B000AF786017
:10506800396007493B6823F0604323F07F037A687F
:1050780013438B600C37BD465DF8047B704700BF57
:1050880000ED00E080B400AF034B044ADA60BD468F
:105098005DF8047B704700BF00ED00E00400FA05EE
:1050A80080B400AF034B044ADA60BD465DF8047B68
:1050B800704700BF00ED00E00100FA0580B483B03E
:1050C80000AF03460A46FB711346BB71BB79002B40
:1050D80006D00949084B1A69FB7913430B6106E0AE
:1050E8000549054B1A69FB79DB4313400B610C3703
:1050F800BD465DF8047B704700ED00E080B485B0E4
:1051080000AF78600B46FB700023FB607B6803F000
:105118001F03012202FA03F3FB60FB78002B06D081
:105128000949094B5A6AFB6813434B6206E0064972
:10513800054B5A6AFB68DB4313404B621437BD4684
:105148005DF8047B704700BF00ED00E080B487B0D5
:1051580000AF78600B46FB701346BB7000237B6181
:10516800FF233B610023FB600023BB60294BDB6806
:10517800DB4303F4E0631B0ABB60BB68C3F10403B1
:105188007B61BB683A6922FA03F33B61FA787B6971
:1051980002FA03F3BB60BA783B691340BA68134359
:1051A800BB60BB681B01BB607B6803F0C0037B610D
:1051B8007B699B097B617B681B0A03F003033B61E6
:1051C8003B69DB001A46BB689340BB603B69DB0068
:1051D8001A46FF239340FB600E490E4A7B6906334B
:1051E80052F82320FB68DB431A407B69063341F8F9
:1051F80023200849074A7B69063352F82320BB68F5
:105208001A437B69063341F823201C37BD465DF8F5
:10521800047B704700ED00E080B487B000AF786091
:105228000023FB7500233B610023FB607B689B0A1E
:10523800FB60FB6803F00F03FB60FB68012202FAC6
:1052480003F3FB600A4B5A6AFB6813403B613A69F7
:10525800FB689A4202D10123FB7501E00023FB752C
:10526800FB7D18461C37BD465DF8047B704700BFC0
:1052780000ED00E080B485B000AF78600023FB60EB
:105288007B6803F01F03FB600649064B5A68FB68FE
:10529800012000FA03F313434B601437BD465DF851
:1052A800047B704700ED00E080B485B000AF786003
:1052B8000023FB607B6803F01F03FB600749074B73
:1052C8005A68FB68013B18460123834013434B602F
:1052D8001437BD465DF8047B704700BF00ED00E061
:1052E80080B487B000AF78600023FB7500233B6172
:1052F8000023FB607B689B0B03F00F03FB60FB68DC
:10530800012202FA03F3FB600A4B5A6AFB68134056
:105318003B613A69FB689A4202D10123FB7501E0BF
:105328000023FB75FB7D18461C37BD465DF8047BE2
:10533800704700BF00ED00E080B487B000AF786030
:1053480000237B6100233B610023FB607B689B0C8F
:1053580003F003033B617B681B0D03F00303FB6051
:105368003B69002B03D1114BDB6A7B6117E03B697A
:10537800012B11D10D4B9B6AFA68D200D3407B6197
:10538800FB68022B04D07B6903F00F037B6106E006
:105398007B69DBB27B6102E0044B1B6B7B617B6941
:1053A80018461C37BD465DF8047B704700ED00E0E9
:1053B80080B485B000AF78600023FB600023BB6039
:1053C8007B689B0D03F00103BB60BB68002B03D116
:1053D800064B5B6BFB6002E0044B9B6BFB60FB685E
:1053E80018461437BD465DF8047B704700ED00E0B1
:1053F80080B400AF134A134B1B6843F001031360DA
:105408001049104B5A68104B13404B600D4A0D4B16
:105418001B6823F0847323F480331360094A094B13
:105428001B6823F480231360064A064B5B6823F449
:10543800FE035360034B00229A60BD465DF8047B6F
:10544800704700BF001002400000FFF880B483B02E
:1054580000AF7860134A134B1B6823F48033136042
:10546800104A104B1B6823F4802313607B68B3F544
:10547800803F03D0B3F5802F07D00DE0094A094BD0
:105488001B6843F48033136006E0064A054B1B682B
:1054980043F4A023136000BF0C37BD465DF8047BBE
:1054A800704700BF0010024080B582B000AF0023F3
:1054B800FB71312000F01AFB03461A46104B1A7094
:1054C800104B1B6801330F4A13600D4B1B78DBB27E
:1054D800002B05D10B4B1B6840F2FF129342E8D119
:1054E800312000F003FB0346002B02D00123FB719F
:1054F80001E00023FB71FB7918460837BD4680BDE3
:10550800A42E0020A82E002080B485B000AF03464A
:10551800FB710023FB600A4B1B68FB60FB6823F0F0
:10552800F803FB60FB79DB00FA681343FB60044A6D
:10553800FB6813601437BD465DF8047B704700BFF5
:105548000010024080B483B000AF0346FB71044AE8
:10555800FB7913600C37BD465DF8047B704700BFCC
:105568000000424280B485B000AF78603960002303
:10557800FB600A4B5B68FB60FB6823F47C13FB60F1
:105588007A683B681343FA681343FB60034AFB6875
:1055980053601437BD465DF8047B70470010024025
:1055A80080B483B000AF0346FB71044AFB791360F3
:1055B8000C37BD465DF8047B704700BF600042426F
:1055C80080B485B000AF78600023FB60094B5B684E
:1055D800FB60FB6823F00303FB60FA687B681343F6
:1055E800FB60044AFB6853601437BD465DF8047BD2
:1055F800704700BF0010024080B400AF054B5B68E5
:10560800DBB203F00C03DBB21846BD465DF8047B41
:10561800704700BF0010024080B485B000AF7860CA
:105628000023FB60094B5B68FB60FB6823F0F00319
:10563800FB60FA687B681343FB60044AFB685360AD
:105648001437BD465DF8047B704700BF0010024068
:1056580080B485B000AF78600023FB60094B5B68BD
:10566800FB60FB6823F4E063FB60FA687B68134324
:10567800FB60044AFB6853601437BD465DF8047B41
:10568800704700BF0010024080B485B000AF78605A
:105698000023FB60094B5B68FB60FB6823F46053E5
:1056A800FB607B68DB00FA681343FB60034AFB6816
:1056B80053601437BD465DF8047B70470010024004
:1056C80080B483B000AF03460A46FB711346BB7132
:1056D800BB79002B08D00C490B4B1B78DAB2FB794D
:1056E8001343DBB20B7009E00749074B1B78DAB2AA
:1056F800FB79DB43DBB21340DBB20B700C37BD46E2
:105708005DF8047B704700BF0910024080B483B085
:1057180000AF7860034A7B6813600C37BD465DF8BC
:10572800047B7047D800424280B485B000AF7860EF
:105738000023FB60094B5B68FB60FB6823F4404374
:10574800FB60FA687B681343FB60044AFB6853609C
:105758001437BD465DF8047B704700BF0010024057
:1057680080B483B000AF0346FB710C4B00221A7063
:105778000A4B00221A70FB79012B02D0042B04D0AB
:1057880007E0064B01221A7003E0044B05221A7049
:1057980000BF0C37BD465DF8047B704720100240FF
:1057A80080B483B000AF0346FB71044AFB791360F1
:1057B8000C37BD465DF8047B704700BF8004424249
:1057C80080B483B000AF78600549054B1A6A7B68DE
:1057D80013430B620C37BD465DF8047B704700BF6E
:1057E8000010024080B483B000AF0346FB71044A46
:1057F800FB7913600C37BD465DF8047B704700BF2A
:105808003C04424280B487B000AF786000237B61DB
:1058180000233B610023FB600023BB604B4B5B68AC
:1058280003F00C037B617B69042B07D0082B09D09C
:10583800002B34D17B68464A1A6034E07B68444ABE
:105848001A6030E0414B5B6803F470133B613B69BD
:105858009B0C02333B613D4B5B6803F48033FB6078
:10586800FB68002B06D13B693A4A02FB03F27B68CE
:105878001A6013E0354B5B6803F40033002B06D045
:105888003B69344A02FB03F27B681A6006E03B6915
:105898002F4A02FB03F27B681A6004E003E07B688E
:1058A8002B4A1A6000BF294B5B6803F0F0037B6149
:1058B8007B691B097B61284A7B6913441B78BB60A1
:1058C8007B681A68BB68DA407B685A601F4B5B6864
:1058D80003F4E0637B617B691B0A7B611E4A7B6979
:1058E80013441B78BB607B685A68BB68DA407B68E6
:1058F8009A60164B5B6803F460537B617B69DB0A33
:105908007B61154A7B6913441B78BB607B685A68C6
:10591800BB68DA407B68DA600C4B5B6803F4404391
:105928007B617B699B0B7B610C4A7B6913441B7809
:10593800BB607B68DA68BB68B2FBF3F27B681A610C
:105948001C37BD465DF8047B704700BF001002405D
:1059580000127A0000093D00A0CB0008B0CB000877
:1059680080B483B000AF78600B46FB70FB78002BE7
:1059780006D00949084B5A697B6813434B6106E016
:105988000549054B5A697B68DB4313404B610C376B
:10599800BD465DF8047B70470010024080B483B0B8
:1059A80000AF78600B46FB70FB78002B06D00949E6
:1059B800084B9A697B6813438B6106E00549054BE0
:1059C8009A697B68DB4313408B610C37BD465DF8F1
:1059D800047B70470010024080B483B000AF786049
:1059E8000B46FB70FB78002B06D00949084BDA6997
:1059F8007B681343CB6106E00549054BDA697B6890
:105A0800DB431340CB610C37BD465DF8047B704720
:105A18000010024080B483B000AF78600B46FB7082
:105A2800FB78002B06D00949084BDA687B681343DA
:105A3800CB6006E00549054BDA687B68DB43134019
:105A4800CB600C37BD465DF8047B70470010024000
:105A580080B483B000AF78600B46FB70FB78002BF6
:105A680006D00949084B1A697B6813430B6106E0A5
:105A78000549054B1A697B68DB4313400B610C37FA
:105A8800BD465DF8047B70470010024080B483B0C7
:105A980000AF0346FB71044AFB7913600C37BD461F
:105AA8005DF8047B704700BF4004424280B483B075
:105AB80000AF0346FB71044AFB7913600C37BD46FF
:105AC8005DF8047B704700BF4C00424280B483B04D
